{
  "contractName": "SupplyChain",
  "abi": [
    {
      "inputs": [],
      "stateMutability": "nonpayable",
      "type": "constructor"
    },
    {
      "anonymous": false,
      "inputs": [
        {
          "indexed": false,
          "internalType": "string",
          "name": "productId",
          "type": "string"
        },
        {
          "indexed": false,
          "internalType": "string",
          "name": "name",
          "type": "string"
        },
        {
          "indexed": false,
          "internalType": "string",
          "name": "owner",
          "type": "string"
        },
        {
          "indexed": false,
          "internalType": "uint256",
          "name": "timestamp",
          "type": "uint256"
        }
      ],
      "name": "ProductAdded",
      "type": "event"
    },
    {
      "anonymous": false,
      "inputs": [
        {
          "indexed": false,
          "internalType": "string",
          "name": "productId",
          "type": "string"
        },
        {
          "indexed": false,
          "internalType": "string",
          "name": "fromOwner",
          "type": "string"
        },
        {
          "indexed": false,
          "internalType": "string",
          "name": "toOwner",
          "type": "string"
        },
        {
          "indexed": false,
          "internalType": "uint256",
          "name": "timestamp",
          "type": "uint256"
        }
      ],
      "name": "ProductTransferred",
      "type": "event"
    },
    {
      "anonymous": false,
      "inputs": [
        {
          "indexed": false,
          "internalType": "string",
          "name": "productId",
          "type": "string"
        },
        {
          "indexed": false,
          "internalType": "string",
          "name": "status",
          "type": "string"
        },
        {
          "indexed": false,
          "internalType": "uint256",
          "name": "timestamp",
          "type": "uint256"
        }
      ],
      "name": "ProductUpdated",
      "type": "event"
    },
    {
      "anonymous": false,
      "inputs": [
        {
          "indexed": false,
          "internalType": "string",
          "name": "username",
          "type": "string"
        },
        {
          "indexed": false,
          "internalType": "string",
          "name": "role",
          "type": "string"
        },
        {
          "indexed": false,
          "internalType": "uint256",
          "name": "timestamp",
          "type": "uint256"
        }
      ],
      "name": "UserRoleAssigned",
      "type": "event"
    },
    {
      "inputs": [],
      "name": "owner",
      "outputs": [
        {
          "internalType": "address",
          "name": "",
          "type": "address"
        }
      ],
      "stateMutability": "view",
      "type": "function",
      "constant": true
    },
    {
      "inputs": [
        {
          "internalType": "string",
          "name": "",
          "type": "string"
        },
        {
          "internalType": "uint256",
          "name": "",
          "type": "uint256"
        }
      ],
      "name": "productHistory",
      "outputs": [
        {
          "internalType": "string",
          "name": "productId",
          "type": "string"
        },
        {
          "internalType": "string",
          "name": "fromOwner",
          "type": "string"
        },
        {
          "internalType": "string",
          "name": "toOwner",
          "type": "string"
        },
        {
          "internalType": "string",
          "name": "action",
          "type": "string"
        },
        {
          "internalType": "string",
          "name": "status",
          "type": "string"
        },
        {
          "internalType": "string",
          "name": "location",
          "type": "string"
        },
        {
          "internalType": "string",
          "name": "note",
          "type": "string"
        },
        {
          "internalType": "uint256",
          "name": "timestamp",
          "type": "uint256"
        }
      ],
      "stateMutability": "view",
      "type": "function",
      "constant": true
    },
    {
      "inputs": [
        {
          "internalType": "string",
          "name": "",
          "type": "string"
        }
      ],
      "name": "products",
      "outputs": [
        {
          "internalType": "string",
          "name": "productId",
          "type": "string"
        },
        {
          "internalType": "string",
          "name": "name",
          "type": "string"
        },
        {
          "internalType": "string",
          "name": "category",
          "type": "string"
        },
        {
          "internalType": "string",
          "name": "description",
          "type": "string"
        },
        {
          "internalType": "uint256",
          "name": "quantity",
          "type": "uint256"
        },
        {
          "internalType": "string",
          "name": "location",
          "type": "string"
        },
        {
          "internalType": "string",
          "name": "currentOwner",
          "type": "string"
        },
        {
          "internalType": "string",
          "name": "status",
          "type": "string"
        },
        {
          "internalType": "uint256",
          "name": "createdAt",
          "type": "uint256"
        },
        {
          "internalType": "uint256",
          "name": "updatedAt",
          "type": "uint256"
        }
      ],
      "stateMutability": "view",
      "type": "function",
      "constant": true
    },
    {
      "inputs": [
        {
          "internalType": "string",
          "name": "",
          "type": "string"
        }
      ],
      "name": "roles",
      "outputs": [
        {
          "internalType": "string",
          "name": "name",
          "type": "string"
        },
        {
          "internalType": "bool",
          "name": "canAddProducts",
          "type": "bool"
        },
        {
          "internalType": "bool",
          "name": "canTransferProducts",
          "type": "bool"
        },
        {
          "internalType": "bool",
          "name": "canUpdateStatus",
          "type": "bool"
        },
        {
          "internalType": "bool",
          "name": "canViewAllProducts",
          "type": "bool"
        }
      ],
      "stateMutability": "view",
      "type": "function",
      "constant": true
    },
    {
      "inputs": [
        {
          "internalType": "string",
          "name": "",
          "type": "string"
        }
      ],
      "name": "userRoles",
      "outputs": [
        {
          "internalType": "string",
          "name": "",
          "type": "string"
        }
      ],
      "stateMutability": "view",
      "type": "function",
      "constant": true
    },
    {
      "inputs": [
        {
          "internalType": "string",
          "name": "_username",
          "type": "string"
        },
        {
          "internalType": "string",
          "name": "_role",
          "type": "string"
        }
      ],
      "name": "assignUserRole",
      "outputs": [],
      "stateMutability": "nonpayable",
      "type": "function"
    },
    {
      "inputs": [
        {
          "internalType": "string",
          "name": "_productId",
          "type": "string"
        },
        {
          "internalType": "string",
          "name": "_name",
          "type": "string"
        },
        {
          "internalType": "string",
          "name": "_owner",
          "type": "string"
        }
      ],
      "name": "addProduct",
      "outputs": [],
      "stateMutability": "nonpayable",
      "type": "function"
    },
    {
      "inputs": [
        {
          "internalType": "string",
          "name": "_productId",
          "type": "string"
        },
        {
          "internalType": "string",
          "name": "_category",
          "type": "string"
        },
        {
          "internalType": "string",
          "name": "_description",
          "type": "string"
        },
        {
          "internalType": "uint256",
          "name": "_quantity",
          "type": "uint256"
        },
        {
          "internalType": "string",
          "name": "_location",
          "type": "string"
        }
      ],
      "name": "updateProductDetails",
      "outputs": [],
      "stateMutability": "nonpayable",
      "type": "function"
    },
    {
      "inputs": [
        {
          "internalType": "string",
          "name": "_productId",
          "type": "string"
        },
        {
          "internalType": "string",
          "name": "_newOwner",
          "type": "string"
        },
        {
          "internalType": "string",
          "name": "_newStatus",
          "type": "string"
        }
      ],
      "name": "transferProduct",
      "outputs": [],
      "stateMutability": "nonpayable",
      "type": "function"
    },
    {
      "inputs": [
        {
          "internalType": "string",
          "name": "_productId",
          "type": "string"
        },
        {
          "internalType": "string",
          "name": "_newLocation",
          "type": "string"
        },
        {
          "internalType": "string",
          "name": "_note",
          "type": "string"
        }
      ],
      "name": "updateProductLocation",
      "outputs": [],
      "stateMutability": "nonpayable",
      "type": "function"
    },
    {
      "inputs": [
        {
          "internalType": "string",
          "name": "_productId",
          "type": "string"
        },
        {
          "internalType": "string",
          "name": "_newStatus",
          "type": "string"
        }
      ],
      "name": "updateProductStatus",
      "outputs": [],
      "stateMutability": "nonpayable",
      "type": "function"
    },
    {
      "inputs": [
        {
          "internalType": "string",
          "name": "_productId",
          "type": "string"
        },
        {
          "internalType": "string",
          "name": "_availability",
          "type": "string"
        },
        {
          "internalType": "uint256",
          "name": "_price",
          "type": "uint256"
        }
      ],
      "name": "updateProductAvailability",
      "outputs": [],
      "stateMutability": "nonpayable",
      "type": "function"
    },
    {
      "inputs": [
        {
          "internalType": "string",
          "name": "_productId",
          "type": "string"
        }
      ],
      "name": "getProduct",
      "outputs": [
        {
          "internalType": "string",
          "name": "productId",
          "type": "string"
        },
        {
          "internalType": "string",
          "name": "name",
          "type": "string"
        },
        {
          "internalType": "string",
          "name": "category",
          "type": "string"
        },
        {
          "internalType": "string",
          "name": "currentOwner",
          "type": "string"
        },
        {
          "internalType": "string",
          "name": "status",
          "type": "string"
        },
        {
          "internalType": "string",
          "name": "location",
          "type": "string"
        },
        {
          "internalType": "uint256",
          "name": "createdAt",
          "type": "uint256"
        },
        {
          "internalType": "uint256",
          "name": "updatedAt",
          "type": "uint256"
        }
      ],
      "stateMutability": "view",
      "type": "function",
      "constant": true
    },
    {
      "inputs": [
        {
          "internalType": "string",
          "name": "_productId",
          "type": "string"
        }
      ],
      "name": "getProductHistoryCount",
      "outputs": [
        {
          "internalType": "uint256",
          "name": "",
          "type": "uint256"
        }
      ],
      "stateMutability": "view",
      "type": "function",
      "constant": true
    },
    {
      "inputs": [
        {
          "internalType": "string",
          "name": "_productId",
          "type": "string"
        },
        {
          "internalType": "uint256",
          "name": "_index",
          "type": "uint256"
        }
      ],
      "name": "getProductHistoryItem",
      "outputs": [
        {
          "internalType": "string",
          "name": "fromOwner",
          "type": "string"
        },
        {
          "internalType": "string",
          "name": "toOwner",
          "type": "string"
        },
        {
          "internalType": "string",
          "name": "action",
          "type": "string"
        },
        {
          "internalType": "string",
          "name": "status",
          "type": "string"
        },
        {
          "internalType": "string",
          "name": "location",
          "type": "string"
        },
        {
          "internalType": "string",
          "name": "note",
          "type": "string"
        },
        {
          "internalType": "uint256",
          "name": "timestamp",
          "type": "uint256"
        }
      ],
      "stateMutability": "view",
      "type": "function",
      "constant": true
    }
  ],
  "bytecode": "0x60806040523480156200001157600080fd5b50600080546001600160a01b031916331781556040805160e081018252600860a0820190815267283937b23ab1b2b960c11b60c083015281526001602082018190528183018190526060820152608081019290925251600390620000839067283937b23ab1b2b960c11b815260080190565b90815260405190819003602001902081518190620000a2908262000569565b50602082810151600192830180546040808701516060808901516080998a0151151563010000000263ff0000001991151562010000029190911663ffff0000199315156101000261ff00199815159890981661ffff199096169590951796909617919091169290921793909317909155815160e081018352600b60a082019081526a2234b9ba3934b13aba37b960a91b60c0830152815260009381018490528083018590529081019390935292820152905160039062000173906a2234b9ba3934b13aba37b960a91b8152600b0190565b9081526040519081900360200190208151819062000192908262000569565b50602082810151600192830180546040808701516060808901516080998a0151151563010000000263ff0000001991151562010000029190911663ffff0000199315156101000261ff00199815159890981661ffff199096169590951796909617919091169290921793909317909155815160e081018352600860a08201908152672932ba30b4b632b960c11b60c083015281526000938101849052808301859052908101939093529282015290516003906200025d90672932ba30b4b632b960c11b815260080190565b908152604051908190036020019020815181906200027c908262000569565b5060208281015160019092018054604080860151606080880151608098890151151563010000000263ff0000001991151562010000029190911663ffff0000199315156101000261ff00199915159990991661ffff199096169590951797909717919091169290921794909417909155825160e081018452600860a082019081526721b7b739bab6b2b960c11b60c083015281526000928101839052808401839052908101829052928301525160039062000345906721b7b739bab6b2b960c11b815260080190565b9081526040519081900360200190208151819062000364908262000569565b50602082810151600192830180546040808701516060808901516080998a0151151563010000000263ff0000001991151562010000029190911663ffff0000199315156101000261ff00199815159890981661ffff199096169590951796909617919091169290921793909317909155815160e081018352600960a08201908152682932b3bab630ba37b960b91b60c083015281526000938101849052808301849052908101929092529281019190915290516003906200043490682932b3bab630ba37b960b91b815260090190565b9081526040519081900360200190208151819062000453908262000569565b50602082015160019190910180546040840151606085015160809095015161ffff1990921693151561ff00191693909317610100931515939093029290921763ffff00001916620100009315159390930263ff00000019169290921763010000009115159190910217905562000635565b634e487b7160e01b600052604160045260246000fd5b600181811c90821680620004ef57607f821691505b6020821081036200051057634e487b7160e01b600052602260045260246000fd5b50919050565b601f8211156200056457600081815260208120601f850160051c810160208610156200053f5750805b601f850160051c820191505b8181101562000560578281556001016200054b565b5050505b505050565b81516001600160401b03811115620005855762000585620004c4565b6200059d81620005968454620004da565b8462000516565b602080601f831160018114620005d55760008415620005bc5750858301515b600019600386901b1c1916600185901b17855562000560565b600085815260208120601f198616915b828110156200060657888601518255948401946001909101908401620005e5565b5085821015620006255787850151600019600388901b60f8161c191681555b5050505050600190811b01905550565b6139a080620006456000396000f3fe608060405234801561001057600080fd5b50600436106100f55760003560e01c80635be48d83116100975780638da5cb5b116100665780638da5cb5b1461024257806391c69d6e1461026d578063bb56873f14610280578063bdf05960146102a457600080fd5b80635be48d83146101d557806368111cce146101f55780636e04b7241461021c57806386c612031461022f57600080fd5b80630e34b00e116100d35780630e34b00e146101685780633036451e1461017b578063416eb9f4146101a15780634efa9359146101c257600080fd5b80630186a423146100fa57806301970b111461012c5780630598714714610153575b600080fd5b61010d610108366004613035565b6102b7565b6040516101239a999897969594939291906130ba565b60405180910390f35b61013f61013a366004613168565b6106c6565b6040516101239897969594939291906131ad565b61016661016136600461324f565b610af2565b005b6101666101763660046132b3565b610f2a565b61018e610189366004613168565b6112bd565b604051610123979695949392919061333b565b6101b46101af366004613035565b6117c9565b604051908152602001610123565b6101666101d03660046133c5565b6117f1565b6101e86101e3366004613035565b611beb565b6040516101239190613432565b610208610203366004613035565b611c90565b60405161012398979695949392919061344c565b61016661022a3660046134dc565b612177565b61016661023d36600461324f565b612654565b600054610255906001600160a01b031681565b6040516001600160a01b039091168152602001610123565b61016661027b3660046132b3565b6126b3565b61029361028e366004613035565b612a76565b604051610123959493929190613593565b6101666102b23660046132b3565b612b44565b80516020818301810180516001825292820191909301209152805481906102dd906135cc565b80601f0160208091040260200160405190810160405280929190818152602001828054610309906135cc565b80156103565780601f1061032b57610100808354040283529160200191610356565b820191906000526020600020905b81548152906001019060200180831161033957829003601f168201915b50505050509080600101805461036b906135cc565b80601f0160208091040260200160405190810160405280929190818152602001828054610397906135cc565b80156103e45780601f106103b9576101008083540402835291602001916103e4565b820191906000526020600020905b8154815290600101906020018083116103c757829003601f168201915b5050505050908060020180546103f9906135cc565b80601f0160208091040260200160405190810160405280929190818152602001828054610425906135cc565b80156104725780601f1061044757610100808354040283529160200191610472565b820191906000526020600020905b81548152906001019060200180831161045557829003601f168201915b505050505090806003018054610487906135cc565b80601f01602080910402602001604051908101604052809291908181526020018280546104b3906135cc565b80156105005780601f106104d557610100808354040283529160200191610500565b820191906000526020600020905b8154815290600101906020018083116104e357829003601f168201915b50505050509080600401549080600501805461051b906135cc565b80601f0160208091040260200160405190810160405280929190818152602001828054610547906135cc565b80156105945780601f1061056957610100808354040283529160200191610594565b820191906000526020600020905b81548152906001019060200180831161057757829003601f168201915b5050505050908060060180546105a9906135cc565b80601f01602080910402602001604051908101604052809291908181526020018280546105d5906135cc565b80156106225780601f106105f757610100808354040283529160200191610622565b820191906000526020600020905b81548152906001019060200180831161060557829003601f168201915b505050505090806007018054610637906135cc565b80601f0160208091040260200160405190810160405280929190818152602001828054610663906135cc565b80156106b05780601f10610685576101008083540402835291602001916106b0565b820191906000526020600020905b81548152906001019060200180831161069357829003601f168201915b505050505090806008015490806009015490508a565b815160208184018101805160028252928201918501919091209190528054829081106106f157600080fd5b906000526020600020906008020160009150915050806000018054610715906135cc565b80601f0160208091040260200160405190810160405280929190818152602001828054610741906135cc565b801561078e5780601f106107635761010080835404028352916020019161078e565b820191906000526020600020905b81548152906001019060200180831161077157829003601f168201915b5050505050908060010180546107a3906135cc565b80601f01602080910402602001604051908101604052809291908181526020018280546107cf906135cc565b801561081c5780601f106107f15761010080835404028352916020019161081c565b820191906000526020600020905b8154815290600101906020018083116107ff57829003601f168201915b505050505090806002018054610831906135cc565b80601f016020809104026020016040519081016040528092919081815260200182805461085d906135cc565b80156108aa5780601f1061087f576101008083540402835291602001916108aa565b820191906000526020600020905b81548152906001019060200180831161088d57829003601f168201915b5050505050908060030180546108bf906135cc565b80601f01602080910402602001604051908101604052809291908181526020018280546108eb906135cc565b80156109385780601f1061090d57610100808354040283529160200191610938565b820191906000526020600020905b81548152906001019060200180831161091b57829003601f168201915b50505050509080600401805461094d906135cc565b80601f0160208091040260200160405190810160405280929190818152602001828054610979906135cc565b80156109c65780601f1061099b576101008083540402835291602001916109c6565b820191906000526020600020905b8154815290600101906020018083116109a957829003601f168201915b5050505050908060050180546109db906135cc565b80601f0160208091040260200160405190810160405280929190818152602001828054610a07906135cc565b8015610a545780601f10610a2957610100808354040283529160200191610a54565b820191906000526020600020905b815481529060010190602001808311610a3757829003601f168201915b505050505090806006018054610a69906135cc565b80601f0160208091040260200160405190810160405280929190818152602001828054610a95906135cc565b8015610ae25780601f10610ab757610100808354040283529160200191610ae2565b820191906000526020600020905b815481529060010190602001808311610ac557829003601f168201915b5050505050908060070154905088565b600182604051610b029190613606565b9081526040519081900360200190208054610b1c906135cc565b9050600003610b465760405162461bcd60e51b8152600401610b3d90613622565b60405180910390fd5b80600183604051610b579190613606565b90815260200160405180910390206007019081610b7491906136a1565b5042600183604051610b869190613606565b908152602001604051809103902060090181905550600282604051610bab9190613606565b9081526020016040518091039020604051806101000160405280848152602001600185604051610bdb9190613606565b90815260200160405180910390206006018054610bf7906135cc565b80601f0160208091040260200160405190810160405280929190818152602001828054610c23906135cc565b8015610c705780601f10610c4557610100808354040283529160200191610c70565b820191906000526020600020905b815481529060010190602001808311610c5357829003601f168201915b50505050508152602001600185604051610c8a9190613606565b90815260200160405180910390206006018054610ca6906135cc565b80601f0160208091040260200160405190810160405280929190818152602001828054610cd2906135cc565b8015610d1f5780601f10610cf457610100808354040283529160200191610d1f565b820191906000526020600020905b815481529060010190602001808311610d0257829003601f168201915b505050505081526020016040518060400160405280600d81526020016c14dd185d1d5cd55c19185d1959609a1b8152508152602001838152602001600185604051610d6a9190613606565b90815260200160405180910390206005018054610d86906135cc565b80601f0160208091040260200160405190810160405280929190818152602001828054610db2906135cc565b8015610dff5780601f10610dd457610100808354040283529160200191610dff565b820191906000526020600020905b815481529060010190602001808311610de257829003601f168201915b5050509183525050604080518082018252600e81526d14dd185d1d5cc81d5c19185d195960921b602082810191909152808401919091524291909201528254600181018455600093845292208151919260080201908190610e6090826136a1565b5060208201516001820190610e7590826136a1565b5060408201516002820190610e8a90826136a1565b5060608201516003820190610e9f90826136a1565b5060808201516004820190610eb490826136a1565b5060a08201516005820190610ec990826136a1565b5060c08201516006820190610ede90826136a1565b5060e0820151816007015550507f28d04b3a3fb9170b3ad1f62a6d7aa849ab48dfa59927a94c270dd47597eaa82d828242604051610f1e93929190613761565b60405180910390a15050565b600183604051610f3a9190613606565b9081526040519081900360200190208054610f54906135cc565b159050610f9c5760405162461bcd60e51b815260206004820152601660248201527550726f6475637420616c72656164792065786973747360501b6044820152606401610b3d565b6040518061014001604052808481526020018381526020016040518060200160405280600081525081526020016040518060200160405280600081525081526020016001815260200160405180602001604052806000815250815260200182815260200160405180604001604052806008815260200167141c9bd91d58d95960c21b8152508152602001428152602001428152506001846040516110409190613606565b9081526040519081900360200190208151819061105d90826136a1565b506020820151600182019061107290826136a1565b506040820151600282019061108790826136a1565b506060820151600382019061109c90826136a1565b506080820151600482015560a082015160058201906110bb90826136a1565b5060c082015160068201906110d090826136a1565b5060e082015160078201906110e590826136a1565b506101008201518160080155610120820151816009015590505060028360405161110f9190613606565b9081526040805191829003602090810183206101008401835286845283820185905283830185905282518084018452600781526610dc99585d195960ca1b81840152606085015282518084018452600880825267141c9bd91d58d95960c21b82850152608086019190915283518084018552600080825260a08701919091528451808601909552601e85527f50726f64756374206372656174656420616e64207265676973746572656400008585015260c08601949094524260e0860152815460018101835591845291909220835192909102019081906111f090826136a1565b506020820151600182019061120590826136a1565b506040820151600282019061121a90826136a1565b506060820151600382019061122f90826136a1565b506080820151600482019061124490826136a1565b5060a0820151600582019061125990826136a1565b5060c0820151600682019061126e90826136a1565b5060e0820151816007015550507f225da28c3fbf5026f4190247be9cfb3606c5ab12c4c486131b1f936bc6da46cf838383426040516112b09493929190613797565b60405180910390a1505050565b60608060608060608060006002896040516112d89190613606565b9081526040519081900360200190205488106113365760405162461bcd60e51b815260206004820152601f60248201527f5472616e73616374696f6e20696e646578206f7574206f6620626f756e6473006044820152606401610b3d565b600060028a6040516113489190613606565b90815260200160405180910390208981548110611367576113676137e2565b906000526020600020906008020160405180610100016040529081600082018054611391906135cc565b80601f01602080910402602001604051908101604052809291908181526020018280546113bd906135cc565b801561140a5780601f106113df5761010080835404028352916020019161140a565b820191906000526020600020905b8154815290600101906020018083116113ed57829003601f168201915b50505050508152602001600182018054611423906135cc565b80601f016020809104026020016040519081016040528092919081815260200182805461144f906135cc565b801561149c5780601f106114715761010080835404028352916020019161149c565b820191906000526020600020905b81548152906001019060200180831161147f57829003601f168201915b505050505081526020016002820180546114b5906135cc565b80601f01602080910402602001604051908101604052809291908181526020018280546114e1906135cc565b801561152e5780601f106115035761010080835404028352916020019161152e565b820191906000526020600020905b81548152906001019060200180831161151157829003601f168201915b50505050508152602001600382018054611547906135cc565b80601f0160208091040260200160405190810160405280929190818152602001828054611573906135cc565b80156115c05780601f10611595576101008083540402835291602001916115c0565b820191906000526020600020905b8154815290600101906020018083116115a357829003601f168201915b505050505081526020016004820180546115d9906135cc565b80601f0160208091040260200160405190810160405280929190818152602001828054611605906135cc565b80156116525780601f1061162757610100808354040283529160200191611652565b820191906000526020600020905b81548152906001019060200180831161163557829003601f168201915b5050505050815260200160058201805461166b906135cc565b80601f0160208091040260200160405190810160405280929190818152602001828054611697906135cc565b80156116e45780601f106116b9576101008083540402835291602001916116e4565b820191906000526020600020905b8154815290600101906020018083116116c757829003601f168201915b505050505081526020016006820180546116fd906135cc565b80601f0160208091040260200160405190810160405280929190818152602001828054611729906135cc565b80156117765780601f1061174b57610100808354040283529160200191611776565b820191906000526020600020905b81548152906001019060200180831161175957829003601f168201915b50505050508152602001600782015481525050905080602001518160400151826060015183608001518460a001518560c001518660e0015197509750975097509750975097505092959891949750929550565b60006002826040516117db9190613606565b9081526040519081900360200190205492915050565b6001836040516118019190613606565b908152604051908190036020019020805461181b906135cc565b905060000361183c5760405162461bcd60e51b8152600401610b3d90613622565b8160018460405161184d9190613606565b9081526020016040518091039020600701908161186a91906136a1565b504260018460405161187c9190613606565b9081526020016040518091039020600901819055506002836040516118a19190613606565b90815260200160405180910390206040518061010001604052808581526020016001866040516118d19190613606565b908152602001604051809103902060060180546118ed906135cc565b80601f0160208091040260200160405190810160405280929190818152602001828054611919906135cc565b80156119665780601f1061193b57610100808354040283529160200191611966565b820191906000526020600020905b81548152906001019060200180831161194957829003601f168201915b505050505081526020016001866040516119809190613606565b9081526020016040518091039020600601805461199c906135cc565b80601f01602080910402602001604051908101604052809291908181526020018280546119c8906135cc565b8015611a155780601f106119ea57610100808354040283529160200191611a15565b820191906000526020600020905b8154815290600101906020018083116119f857829003601f168201915b5050505050815260200160405180604001604052806013815260200172105d985a5b18589a5b1a5d1e555c19185d1959606a1b8152508152602001848152602001600186604051611a669190613606565b90815260200160405180910390206005018054611a82906135cc565b80601f0160208091040260200160405190810160405280929190818152602001828054611aae906135cc565b8015611afb5780601f10611ad057610100808354040283529160200191611afb565b820191906000526020600020905b815481529060010190602001808311611ade57829003601f168201915b50505050508152602001611b0e84612e89565b604051602001611b1e91906137f8565b60408051601f198184030181529190528152426020918201528254600181018455600093845292208151919260080201908190611b5b90826136a1565b5060208201516001820190611b7090826136a1565b5060408201516002820190611b8590826136a1565b5060608201516003820190611b9a90826136a1565b5060808201516004820190611baf90826136a1565b5060a08201516005820190611bc490826136a1565b5060c08201516006820190611bd990826136a1565b5060e082015181600701555050505050565b805160208183018101805160048252928201919093012091528054611c0f906135cc565b80601f0160208091040260200160405190810160405280929190818152602001828054611c3b906135cc565b8015611c885780601f10611c5d57610100808354040283529160200191611c88565b820191906000526020600020905b815481529060010190602001808311611c6b57829003601f168201915b505050505081565b606080606080606080600080600189604051611cac9190613606565b9081526040519081900360200190208054611cc6906135cc565b9050600003611ce75760405162461bcd60e51b8152600401610b3d90613622565b600060018a604051611cf99190613606565b908152602001604051809103902060405180610140016040529081600082018054611d23906135cc565b80601f0160208091040260200160405190810160405280929190818152602001828054611d4f906135cc565b8015611d9c5780601f10611d7157610100808354040283529160200191611d9c565b820191906000526020600020905b815481529060010190602001808311611d7f57829003601f168201915b50505050508152602001600182018054611db5906135cc565b80601f0160208091040260200160405190810160405280929190818152602001828054611de1906135cc565b8015611e2e5780601f10611e0357610100808354040283529160200191611e2e565b820191906000526020600020905b815481529060010190602001808311611e1157829003601f168201915b50505050508152602001600282018054611e47906135cc565b80601f0160208091040260200160405190810160405280929190818152602001828054611e73906135cc565b8015611ec05780601f10611e9557610100808354040283529160200191611ec0565b820191906000526020600020905b815481529060010190602001808311611ea357829003601f168201915b50505050508152602001600382018054611ed9906135cc565b80601f0160208091040260200160405190810160405280929190818152602001828054611f05906135cc565b8015611f525780601f10611f2757610100808354040283529160200191611f52565b820191906000526020600020905b815481529060010190602001808311611f3557829003601f168201915b5050505050815260200160048201548152602001600582018054611f75906135cc565b80601f0160208091040260200160405190810160405280929190818152602001828054611fa1906135cc565b8015611fee5780601f10611fc357610100808354040283529160200191611fee565b820191906000526020600020905b815481529060010190602001808311611fd157829003601f168201915b50505050508152602001600682018054612007906135cc565b80601f0160208091040260200160405190810160405280929190818152602001828054612033906135cc565b80156120805780601f1061205557610100808354040283529160200191612080565b820191906000526020600020905b81548152906001019060200180831161206357829003601f168201915b50505050508152602001600782018054612099906135cc565b80601f01602080910402602001604051908101604052809291908181526020018280546120c5906135cc565b80156121125780601f106120e757610100808354040283529160200191612112565b820191906000526020600020905b8154815290600101906020018083116120f557829003601f168201915b505050505081526020016008820154815260200160098201548152505090508060000151816020015182604001518360c001518460e001518560a001518661010001518761012001519850985098509850985098509850985050919395975091939597565b6001856040516121879190613606565b90815260405190819003602001902080546121a1906135cc565b90506000036121c25760405162461bcd60e51b8152600401610b3d90613622565b836001866040516121d39190613606565b908152602001604051809103902060020190816121f091906136a1565b50826001866040516122029190613606565b9081526020016040518091039020600301908161221f91906136a1565b50816001866040516122319190613606565b908152602001604051809103902060040181905550806001866040516122579190613606565b9081526020016040518091039020600501908161227491906136a1565b50426001866040516122869190613606565b9081526020016040518091039020600901819055506002856040516122ab9190613606565b90815260200160405180910390206040518061010001604052808781526020016001886040516122db9190613606565b908152602001604051809103902060060180546122f7906135cc565b80601f0160208091040260200160405190810160405280929190818152602001828054612323906135cc565b80156123705780601f1061234557610100808354040283529160200191612370565b820191906000526020600020905b81548152906001019060200180831161235357829003601f168201915b5050505050815260200160018860405161238a9190613606565b908152602001604051809103902060060180546123a6906135cc565b80601f01602080910402602001604051908101604052809291908181526020018280546123d2906135cc565b801561241f5780601f106123f45761010080835404028352916020019161241f565b820191906000526020600020905b81548152906001019060200180831161240257829003601f168201915b5050505050815260200160405180604001604052806007815260200166155c19185d195960ca1b815250815260200160018860405161245e9190613606565b9081526020016040518091039020600701805461247a906135cc565b80601f01602080910402602001604051908101604052809291908181526020018280546124a6906135cc565b80156124f35780601f106124c8576101008083540402835291602001916124f3565b820191906000526020600020905b8154815290600101906020018083116124d657829003601f168201915b50505091835250506020808201859052604080518082018252601781527f50726f647563742064657461696c732075706461746564000000000000000000818401529083015242606090920191909152825460018101845560009384529220815191926008020190819061256790826136a1565b506020820151600182019061257c90826136a1565b506040820151600282019061259190826136a1565b50606082015160038201906125a690826136a1565b50608082015160048201906125bb90826136a1565b5060a082015160058201906125d090826136a1565b5060c082015160068201906125e590826136a1565b5060e0820151816007015550507f28d04b3a3fb9170b3ad1f62a6d7aa849ab48dfa59927a94c270dd47597eaa82d856001876040516126249190613606565b9081526020016040518091039020600701426040516126459392919061382d565b60405180910390a15050505050565b806004836040516126659190613606565b9081526020016040518091039020908161267f91906136a1565b507f6ab0585e7f5593f13930482fbacda1eeacf6aaf5d9bab9ff0bc3f2dffef654a8828242604051610f1e93929190613761565b6001836040516126c39190613606565b90815260405190819003602001902080546126dd906135cc565b90506000036126fe5760405162461bcd60e51b8152600401610b3d90613622565b60006001846040516127109190613606565b9081526020016040518091039020600601805461272c906135cc565b80601f0160208091040260200160405190810160405280929190818152602001828054612758906135cc565b80156127a55780601f1061277a576101008083540402835291602001916127a5565b820191906000526020600020905b81548152906001019060200180831161278857829003601f168201915b50505050509050826001856040516127bd9190613606565b908152602001604051809103902060060190816127da91906136a1565b50816001856040516127ec9190613606565b9081526020016040518091039020600701908161280991906136a1565b504260018560405161281b9190613606565b9081526020016040518091039020600901819055506002846040516128409190613606565b90815260200160405180910390206040518061010001604052808681526020018381526020018581526020016040518060400160405280600b81526020016a151c985b9cd9995c9c995960aa1b81525081526020018481526020016001876040516128ab9190613606565b908152602001604051809103902060050180546128c7906135cc565b80601f01602080910402602001604051908101604052809291908181526020018280546128f3906135cc565b80156129405780601f1061291557610100808354040283529160200191612940565b820191906000526020600020905b81548152906001019060200180831161292357829003601f168201915b5050509183525050604080518082018252601581527413dddb995c9cda1a5c081d1c985b9cd9995c9c9959605a1b6020828101919091528084019190915242919092015282546001810184556000938452922081519192600802019081906129a890826136a1565b50602082015160018201906129bd90826136a1565b50604082015160028201906129d290826136a1565b50606082015160038201906129e790826136a1565b50608082015160048201906129fc90826136a1565b5060a08201516005820190612a1190826136a1565b5060c08201516006820190612a2690826136a1565b5060e0820151816007015550507fd7e3e3325f3942506aaf48e99334e0594562aff12c9cbd9c509285281064c2c184828542604051612a689493929190613797565b60405180910390a150505050565b8051602081830181018051600382529282019190930120915280548190612a9c906135cc565b80601f0160208091040260200160405190810160405280929190818152602001828054612ac8906135cc565b8015612b155780601f10612aea57610100808354040283529160200191612b15565b820191906000526020600020905b815481529060010190602001808311612af857829003601f168201915b5050506001909301549192505060ff808216916101008104821691620100008204811691630100000090041685565b600183604051612b549190613606565b9081526040519081900360200190208054612b6e906135cc565b9050600003612b8f5760405162461bcd60e51b8152600401610b3d90613622565b81600184604051612ba09190613606565b90815260200160405180910390206005019081612bbd91906136a1565b5042600184604051612bcf9190613606565b908152602001604051809103902060090181905550600283604051612bf49190613606565b9081526020016040518091039020604051806101000160405280858152602001600186604051612c249190613606565b90815260200160405180910390206006018054612c40906135cc565b80601f0160208091040260200160405190810160405280929190818152602001828054612c6c906135cc565b8015612cb95780601f10612c8e57610100808354040283529160200191612cb9565b820191906000526020600020905b815481529060010190602001808311612c9c57829003601f168201915b50505050508152602001600186604051612cd39190613606565b90815260200160405180910390206006018054612cef906135cc565b80601f0160208091040260200160405190810160405280929190818152602001828054612d1b906135cc565b8015612d685780601f10612d3d57610100808354040283529160200191612d68565b820191906000526020600020905b815481529060010190602001808311612d4b57829003601f168201915b505050505081526020016040518060400160405280600f81526020016e131bd8d85d1a5bdb955c19185d1959608a1b8152508152602001600186604051612daf9190613606565b90815260200160405180910390206007018054612dcb906135cc565b80601f0160208091040260200160405190810160405280929190818152602001828054612df7906135cc565b8015612e445780601f10612e1957610100808354040283529160200191612e44565b820191906000526020600020905b815481529060010190602001808311612e2757829003601f168201915b5050509183525050602080820186905260408201859052426060909201919091528254600181018455600093845292208151919260080201908190611b5b90826136a1565b606081600003612eb05750506040805180820190915260018152600360fc1b602082015290565b8160005b8115612eda5780612ec4816138e7565b9150612ed39050600a83613916565b9150612eb4565b60008167ffffffffffffffff811115612ef557612ef5612f92565b6040519080825280601f01601f191660200182016040528015612f1f576020820181803683370190505b5090505b8415612f8a57612f3460018361392a565b9150612f41600a86613943565b612f4c906030613957565b60f81b818381518110612f6157612f616137e2565b60200101906001600160f81b031916908160001a905350612f83600a86613916565b9450612f23565b949350505050565b634e487b7160e01b600052604160045260246000fd5b600082601f830112612fb957600080fd5b813567ffffffffffffffff80821115612fd457612fd4612f92565b604051601f8301601f19908116603f01168101908282118183101715612ffc57612ffc612f92565b8160405283815286602085880101111561301557600080fd5b836020870160208301376000602085830101528094505050505092915050565b60006020828403121561304757600080fd5b813567ffffffffffffffff81111561305e57600080fd5b612f8a84828501612fa8565b60005b8381101561308557818101518382015260200161306d565b50506000910152565b600081518084526130a681602086016020860161306a565b601f01601f19169290920160200192915050565b60006101408083526130ce8184018e61308e565b905082810360208401526130e2818d61308e565b905082810360408401526130f6818c61308e565b9050828103606084015261310a818b61308e565b905088608084015282810360a0840152613124818961308e565b905082810360c0840152613138818861308e565b905082810360e084015261314c818761308e565b6101008401959095525050610120015298975050505050505050565b6000806040838503121561317b57600080fd5b823567ffffffffffffffff81111561319257600080fd5b61319e85828601612fa8565b95602094909401359450505050565b60006101008083526131c18184018c61308e565b905082810360208401526131d5818b61308e565b905082810360408401526131e9818a61308e565b905082810360608401526131fd818961308e565b90508281036080840152613211818861308e565b905082810360a0840152613225818761308e565b905082810360c0840152613239818661308e565b9150508260e08301529998505050505050505050565b6000806040838503121561326257600080fd5b823567ffffffffffffffff8082111561327a57600080fd5b61328686838701612fa8565b9350602085013591508082111561329c57600080fd5b506132a985828601612fa8565b9150509250929050565b6000806000606084860312156132c857600080fd5b833567ffffffffffffffff808211156132e057600080fd5b6132ec87838801612fa8565b9450602086013591508082111561330257600080fd5b61330e87838801612fa8565b9350604086013591508082111561332457600080fd5b5061333186828701612fa8565b9150509250925092565b60e08152600061334e60e083018a61308e565b8281036020840152613360818a61308e565b90508281036040840152613374818961308e565b90508281036060840152613388818861308e565b9050828103608084015261339c818761308e565b905082810360a08401526133b0818661308e565b9150508260c083015298975050505050505050565b6000806000606084860312156133da57600080fd5b833567ffffffffffffffff808211156133f257600080fd5b6133fe87838801612fa8565b9450602086013591508082111561341457600080fd5b5061342186828701612fa8565b925050604084013590509250925092565b602081526000613445602083018461308e565b9392505050565b60006101008083526134608184018c61308e565b90508281036020840152613474818b61308e565b90508281036040840152613488818a61308e565b9050828103606084015261349c818961308e565b905082810360808401526134b0818861308e565b905082810360a08401526134c4818761308e565b60c0840195909552505060e001529695505050505050565b600080600080600060a086880312156134f457600080fd5b853567ffffffffffffffff8082111561350c57600080fd5b61351889838a01612fa8565b9650602088013591508082111561352e57600080fd5b61353a89838a01612fa8565b9550604088013591508082111561355057600080fd5b61355c89838a01612fa8565b945060608801359350608088013591508082111561357957600080fd5b5061358688828901612fa8565b9150509295509295909350565b60a0815260006135a660a083018861308e565b951515602083015250921515604084015290151560608301521515608090910152919050565b600181811c908216806135e057607f821691505b60208210810361360057634e487b7160e01b600052602260045260246000fd5b50919050565b6000825161361881846020870161306a565b9190910192915050565b602080825260169082015275141c9bd91d58dd08191bd95cc81b9bdd08195e1a5cdd60521b604082015260600190565b601f82111561369c57600081815260208120601f850160051c810160208610156136795750805b601f850160051c820191505b8181101561369857828155600101613685565b5050505b505050565b815167ffffffffffffffff8111156136bb576136bb612f92565b6136cf816136c984546135cc565b84613652565b602080601f83116001811461370457600084156136ec5750858301515b600019600386901b1c1916600185901b178555613698565b600085815260208120601f198616915b8281101561373357888601518255948401946001909101908401613714565b50858210156137515787850151600019600388901b60f8161c191681555b5050505050600190811b01905550565b606081526000613774606083018661308e565b8281036020840152613786818661308e565b915050826040830152949350505050565b6080815260006137aa608083018761308e565b82810360208401526137bc818761308e565b905082810360408401526137d0818661308e565b91505082606083015295945050505050565b634e487b7160e01b600052603260045260246000fd5b6c0283934b1b29039b2ba103a379609d1b81526000825161382081600d85016020870161306a565b91909101600d0192915050565b606081526000613840606083018661308e565b60208382038185015260008654613856816135cc565b80855260018281168015613871576001811461388b576138b9565b60ff1984168787015282151560051b8701860194506138b9565b8a6000528560002060005b848110156138b1578154898201890152908301908701613896565b880187019550505b50505050809350505050826040830152949350505050565b634e487b7160e01b600052601160045260246000fd5b6000600182016138f9576138f96138d1565b5060010190565b634e487b7160e01b600052601260045260246000fd5b60008261392557613925613900565b500490565b8181038181111561393d5761393d6138d1565b92915050565b60008261395257613952613900565b500690565b8082018082111561393d5761393d6138d156fea2646970667358221220355f898cfe655729285898d5637bfa09a393b8f019903165510710e6d068bd6364736f6c63430008110033",
  "immutableReferences": {},
  "source": "// SPDX-License-Identifier: MIT\npragma solidity ^0.8.0;\n\n/**\n * @title SupplyChain\n * @dev Smart contract for tracking products in a supply chain\n */\ncontract SupplyChain {\n    // Product structure\n    struct Product {\n        string productId;      // Unique product identifier\n        string name;           // Product name\n        string category;       // Product category\n        string description;    // Product description\n        uint256 quantity;      // Product quantity\n        string location;       // Current location\n        string currentOwner;   // Current owner's identifier (username)\n        string status;         // Current status (e.g., \"Produced\", \"In Transit\", \"Delivered\")\n        uint256 createdAt;     // Timestamp when product was created\n        uint256 updatedAt;     // Timestamp when product was last updated\n    }\n    \n    // Transaction structure to track product lifecycle\n    struct ProductTransaction {\n        string productId;      // Product identifier\n        string fromOwner;      // Previous owner\n        string toOwner;        // New owner\n        string action;         // Action performed (e.g., \"Created\", \"Transferred\", \"Updated\")\n        string status;         // Status at time of transaction\n        string location;       // Location at time of transaction\n        string note;           // Additional notes\n        uint256 timestamp;     // When transaction occurred\n    }\n    \n    // Role structure\n    struct Role {\n        string name;           // Role name (Producer, Distributor, Retailer, etc.)\n        bool canAddProducts;   // Can add products\n        bool canTransferProducts; // Can transfer products\n        bool canUpdateStatus;  // Can update product status\n        bool canViewAllProducts; // Can view all products regardless of ownership\n    }\n    \n    // State variables\n    address public owner;                                  // Contract owner/deployer\n    mapping(string => Product) public products;            // Maps productId to Product\n    mapping(string => ProductTransaction[]) public productHistory; // Maps productId to its history\n    mapping(string => Role) public roles;                  // Maps role name to Role\n    mapping(string => string) public userRoles;            // Maps username to role name\n    \n    // Events for logging\n    event ProductAdded(string productId, string name, string owner, uint256 timestamp);\n    event ProductTransferred(string productId, string fromOwner, string toOwner, uint256 timestamp);\n    event ProductUpdated(string productId, string status, uint256 timestamp);\n    event UserRoleAssigned(string username, string role, uint256 timestamp);\n    \n    // Constructor\n    constructor() {\n        owner = msg.sender;\n        \n        // Initialize default roles\n        roles[\"Producer\"] = Role({\n            name: \"Producer\",\n            canAddProducts: true,\n            canTransferProducts: true,\n            canUpdateStatus: true,\n            canViewAllProducts: false\n        });\n        \n        roles[\"Distributor\"] = Role({\n            name: \"Distributor\",\n            canAddProducts: false,\n            canTransferProducts: true,\n            canUpdateStatus: true,\n            canViewAllProducts: false\n        });\n        \n        roles[\"Retailer\"] = Role({\n            name: \"Retailer\",\n            canAddProducts: false,\n            canTransferProducts: true,\n            canUpdateStatus: true,\n            canViewAllProducts: false\n        });\n        \n        roles[\"Consumer\"] = Role({\n            name: \"Consumer\",\n            canAddProducts: false,\n            canTransferProducts: false,\n            canUpdateStatus: false,\n            canViewAllProducts: false\n        });\n        \n        roles[\"Regulator\"] = Role({\n            name: \"Regulator\",\n            canAddProducts: false,\n            canTransferProducts: false,\n            canUpdateStatus: false,\n            canViewAllProducts: true\n        });\n    }\n    \n    // Modifiers\n    modifier onlyOwner() {\n        require(msg.sender == owner, \"Only contract owner can call this function\");\n        _;\n    }\n    \n    // Function to assign a role to a user\n    function assignUserRole(string memory _username, string memory _role) public {\n        // In a real implementation, we would add access control here\n        userRoles[_username] = _role;\n        emit UserRoleAssigned(_username, _role, block.timestamp);\n    }\n    \n    // Function to add a new product to the supply chain\n    function addProduct(\n        string memory _productId,\n        string memory _name,\n        string memory _owner\n    ) public {\n        // Ensure product doesn't already exist\n        require(bytes(products[_productId].productId).length == 0, \"Product already exists\");\n        \n        // Create new product with minimal info\n        products[_productId] = Product({\n            productId: _productId,\n            name: _name,\n            category: \"\",\n            description: \"\",\n            quantity: 1,\n            location: \"\",\n            currentOwner: _owner,\n            status: \"Produced\",\n            createdAt: block.timestamp,\n            updatedAt: block.timestamp\n        });\n        \n        // Add initial transaction to history\n        productHistory[_productId].push(ProductTransaction({\n            productId: _productId,\n            fromOwner: _owner,\n            toOwner: _owner,\n            action: \"Created\",\n            status: \"Produced\",\n            location: \"\",\n            note: \"Product created and registered\",\n            timestamp: block.timestamp\n        }));\n        \n        // Emit event\n        emit ProductAdded(_productId, _name, _owner, block.timestamp);\n    }\n    \n    // Function to update product details\n    function updateProductDetails(\n        string memory _productId,\n        string memory _category,\n        string memory _description,\n        uint256 _quantity,\n        string memory _location\n    ) public {\n        // Ensure product exists\n        require(bytes(products[_productId].productId).length != 0, \"Product does not exist\");\n        \n        // Update product details\n        products[_productId].category = _category;\n        products[_productId].description = _description;\n        products[_productId].quantity = _quantity;\n        products[_productId].location = _location;\n        products[_productId].updatedAt = block.timestamp;\n        \n        // Add transaction to history\n        productHistory[_productId].push(ProductTransaction({\n            productId: _productId,\n            fromOwner: products[_productId].currentOwner,\n            toOwner: products[_productId].currentOwner,\n            action: \"Updated\",\n            status: products[_productId].status,\n            location: _location,\n            note: \"Product details updated\",\n            timestamp: block.timestamp\n        }));\n        \n        // Emit event\n        emit ProductUpdated(_productId, products[_productId].status, block.timestamp);\n    }\n    \n    // Function to transfer product ownership\n    function transferProduct(\n        string memory _productId, \n        string memory _newOwner,\n        string memory _newStatus\n    ) public {\n        // Ensure product exists\n        require(bytes(products[_productId].productId).length != 0, \"Product does not exist\");\n        \n        // Get current owner for the transaction record\n        string memory currentOwner = products[_productId].currentOwner;\n        \n        // Update product\n        products[_productId].currentOwner = _newOwner;\n        products[_productId].status = _newStatus;\n        products[_productId].updatedAt = block.timestamp;\n        \n        // Add transaction to history\n        productHistory[_productId].push(ProductTransaction({\n            productId: _productId,\n            fromOwner: currentOwner,\n            toOwner: _newOwner,\n            action: \"Transferred\",\n            status: _newStatus,\n            location: products[_productId].location,\n            note: \"Ownership transferred\",\n            timestamp: block.timestamp\n        }));\n        \n        // Emit event\n        emit ProductTransferred(_productId, currentOwner, _newOwner, block.timestamp);\n    }\n    \n    // Function to update product location (for distributors)\n    function updateProductLocation(\n        string memory _productId,\n        string memory _newLocation,\n        string memory _note\n    ) public {\n        // Ensure product exists\n        require(bytes(products[_productId].productId).length != 0, \"Product does not exist\");\n        \n        // Update product location\n        products[_productId].location = _newLocation;\n        products[_productId].updatedAt = block.timestamp;\n        \n        // Add transaction to history\n        productHistory[_productId].push(ProductTransaction({\n            productId: _productId,\n            fromOwner: products[_productId].currentOwner,\n            toOwner: products[_productId].currentOwner,\n            action: \"LocationUpdated\",\n            status: products[_productId].status,\n            location: _newLocation,\n            note: _note,\n            timestamp: block.timestamp\n        }));\n    }\n    \n    // Function to update product status\n    function updateProductStatus(\n        string memory _productId, \n        string memory _newStatus\n    ) public {\n        // Ensure product exists\n        require(bytes(products[_productId].productId).length != 0, \"Product does not exist\");\n        \n        // Update product status\n        products[_productId].status = _newStatus;\n        products[_productId].updatedAt = block.timestamp;\n        \n        // Add transaction to history\n        productHistory[_productId].push(ProductTransaction({\n            productId: _productId,\n            fromOwner: products[_productId].currentOwner,\n            toOwner: products[_productId].currentOwner,\n            action: \"StatusUpdated\",\n            status: _newStatus,\n            location: products[_productId].location,\n            note: \"Status updated\",\n            timestamp: block.timestamp\n        }));\n        \n        // Emit event\n        emit ProductUpdated(_productId, _newStatus, block.timestamp);\n    }\n    \n    // Function to update product availability (for retailers)\n    function updateProductAvailability(\n        string memory _productId,\n        string memory _availability,\n        uint256 _price\n    ) public {\n        // Ensure product exists\n        require(bytes(products[_productId].productId).length != 0, \"Product does not exist\");\n        \n        // Update product status to reflect availability\n        products[_productId].status = _availability;\n        products[_productId].updatedAt = block.timestamp;\n        \n        // Add transaction to history\n        productHistory[_productId].push(ProductTransaction({\n            productId: _productId,\n            fromOwner: products[_productId].currentOwner,\n            toOwner: products[_productId].currentOwner,\n            action: \"AvailabilityUpdated\",\n            status: _availability,\n            location: products[_productId].location,\n            note: string(abi.encodePacked(\"Price set to \", _toString(_price))),\n            timestamp: block.timestamp\n        }));\n    }\n    \n    // Function to get product details\n    function getProduct(string memory _productId) public view returns (\n        string memory productId,\n        string memory name,\n        string memory category,\n        string memory currentOwner,\n        string memory status,\n        string memory location,\n        uint256 createdAt,\n        uint256 updatedAt\n    ) {\n        // Ensure product exists\n        require(bytes(products[_productId].productId).length != 0, \"Product does not exist\");\n        \n        Product memory product = products[_productId];\n        return (\n            product.productId,\n            product.name,\n            product.category,\n            product.currentOwner,\n            product.status,\n            product.location,\n            product.createdAt,\n            product.updatedAt\n        );\n    }\n    \n    // Function to get transaction history count\n    function getProductHistoryCount(string memory _productId) public view returns (uint256) {\n        return productHistory[_productId].length;\n    }\n    \n    // Function to get specific transaction from history\n    function getProductHistoryItem(string memory _productId, uint256 _index) public view returns (\n        string memory fromOwner,\n        string memory toOwner,\n        string memory action,\n        string memory status,\n        string memory location,\n        string memory note,\n        uint256 timestamp\n    ) {\n        require(_index < productHistory[_productId].length, \"Transaction index out of bounds\");\n        \n        ProductTransaction memory txn = productHistory[_productId][_index];\n        return (\n            txn.fromOwner,\n            txn.toOwner,\n            txn.action,\n            txn.status,\n            txn.location,\n            txn.note,\n            txn.timestamp\n        );\n    }\n    \n    // Helper function to convert uint to string\n    function _toString(uint256 value) internal pure returns (string memory) {\n        // This is just a simple implementation for a limited range of values\n        if (value == 0) {\n            return \"0\";\n        }\n        \n        uint256 temp = value;\n        uint256 digits;\n        \n        while (temp != 0) {\n            digits++;\n            temp /= 10;\n        }\n        \n        bytes memory buffer = new bytes(digits);\n        \n        while (value != 0) {\n            digits -= 1;\n            buffer[digits] = bytes1(uint8(48 + uint256(value % 10)));\n            value /= 10;\n        }\n        \n        return string(buffer);\n    }\n}",
  "sourcePath": "/Users/development/Documents/GitHub/BlockChainSCM/contracts/contracts/SupplyChain.sol",
  "compiler": {
    "name": "solc",
    "version": "0.8.17+commit.8df45f5f.Emscripten.clang"
  },
  "schemaVersion": "3.4.16",
  "updatedAt": "2025-04-14T15:29:54.531Z",
  "networkType": "ethereum",
  "devdoc": {
    "details": "Smart contract for tracking products in a supply chain",
    "kind": "dev",
    "methods": {},
    "title": "SupplyChain",
    "version": 1
  },
  "userdoc": {
    "kind": "user",
    "methods": {},
    "version": 1
  }
}